:100CFF0000010203101311120405060714FFFFFF72
:100D0F0008090A0BC0C1C2C30C0D0E0FC4C5C6C75C
:0300000002067E77
:10000300C2B1C2AFC2A891FFB148D17B30C002D107
:10001300AE30C202D1A030C1030206BBD2AFD2A818
:03002300D2B13225
:1004FF00B10CB119B13E75800075A0FF22E5A07C4B
:10050F000030E0050C1302051022B280E5A0B4FF05
:10051F00037D0022B280B281E5A0B4FF037D0122EA
:10052F00B281B282E5A0B4FF037D02227D0322EDEA
:10053F00C4034C900CFF93F922F5FFE954F0B4C0BB
:10054F0005E5FFD14722E954F0C2D5B40002D2D558
:10055F00C2C0C2C2C2C1B91409D2C178007A007B2D
:10056F000022B8000BB91005780102062D02062BE8
:10057F00B8010D30D5077802D13902062D02062BAE
:10058F00B8020D30D5077803D13902062D02062B9C
:10059F00B80319B9130B7804EBFED2C0D1300206A1
:1005AF002D30D505D13902062D02062BB8041F3088
:1005BF00D5077805D14002062DB911060BD13002AF
:1005CF00062DB912061BD13002062D02062BB805D7
:1005DF000D30D5077806D14002062D02062BB8063E
:1005EF0015B913077807D2C002062D30D505D140B3
:1005FF0002062D02062BB80725B910077801D13056
:10060F0002062DB9110878040BD13002062DB9124C
:10061F000878041BD13002062D02062BD2C2D171ED
:10062F002288FFEBF8E6FAA8FF22EBC454F049FB4F
:10063F0022EAC454F049FA22B9C00122B9C102E832
:10064F0022B9C202EB22B9C302EA22B9C402EE22D6
:10065F00B9C503E5F022B9C603E5CF22B9C700D16A
:10066F007122E854FCB40002EB22EA22F5902275C5
:10067F00800075A0FF759000D288C2AA780079001B
:10068F007A007B00C2D5C2C1C2C0D2AFD2A80206C7
:10069F009D8590F07488D17BF1E1E5F0D17B22B894
:1006AF0004012288F0EBF8EAF6A8F022EEF97C00BC
:1006BF007B00F5FFE7FCE5FF09D1CD0206C1BC00C9
:1006CF0006D17B02068722BC04020422BC08020862
:1006DF0022BC0A020A22BC0D020D22BC0F020F22FD
:1006EF00BC110B09F5FFE9FB19E7F9E5FF22BC1473
:1006FF00021422BC18021822BC1A021A22BC1D02B4
:10070F001D22BC1F021F22BC200122BC2207F5FFA5
:10071F00EBF9E5FF22BC2409F5FFE7FCE5FF2C0907
:10072F0022BC28022822BC2A022A22BC2D022D22FA
:10073F00BC2F022F22BC3409F5FFE7FCE5FF3C0973
:10074F0022BC600B60020922F5FFE7F9E5FF22BC2E
:10075F00700B70020922F5FFE7F9E5FF22BC610774
:10076F00F5FFE7F9E5FF22BC7403E70922BC78081F
:10077F00F5FFE7F8E5FF0922BC7A08F5FFE7FAE590
:10078F00FF0922BC7D08F5FFE7FDE5FF0922BC7FCD
:10079F0008F5FFE7FFE5FF0922BCE802E822BCEA03
:1007AF0002EA22BCED02ED22BCEF02EF22BCF40202
:1007BF00F422BCF602F622BCF802F822BCFA02FAC6
:1007CF0022BCFD02FD22BCFF02FF227590FF020634
:1007DF009D2275FE0A758901758A00758C00D28C71
:0B07EF00308DFDC28DC28CD5FEEB22C8
:00000001FF
