:100CFF0000010203101311120405060714FFFFFF72
:100D0F0008090A0BC0C1C2C30C0D0E0FC4C5C6C75C
:0300000002062CC9
:10000300C2B1C2AFC2A891FFB148D11FD12930C03C
:1000130002D15F30C202D15130C10302066CD2AFAC
:05002300D2A8D2B132A9
:1004FF00B10CB119B13E75800075A0FF22E5A07C4B
:10050F000030E0050C1302051022B280E5A0B4FF05
:10051F00037D0022B280B281E5A0B4FF037D0122EA
:10052F00B281B282E5A0B4FF037D02227D0322EDEA
:10053F00C4034C900CFF93F922E954F0C2D5B400D8
:10054F0002D2D5C2C0C2C2C2C1B91409D2C1780089
:10055F007A007B0022B8000BB91005780102061053
:10056F0002060EB8010D30D5077802D11102061020
:10057F0002060EB8020D30D5077803D1110206100E
:10058F0002060EB80317B913097804EBFED2C002A6
:10059F00061030D505D11102061002060EB8040D53
:1005AF0030D5077805D11802061002060EB8050DD2
:1005BF0030D5F77806D11802061002060EB80615C8
:1005CF00B913077807D2C002061030D505D118022B
:1005DF00061002060EB80729B9100778017A000233
:1005EF000610B9110A78047A00EB04FB020610B961
:1005FF00120A78047A00EB14FB02061002060ED2E0
:10060F00C222EBC454F049FB22EAC454F049FA2247
:10061F00E854FCB40002EB22EA22F59022D1310219
:10062F00062E75800075A0FF759000D288C2AA783B
:10063F000079007A007B00C2D5C2C1C2C0D2AFD24E
:10064F00A8228580F07488D129D1AFE580D12922E5
:10065F00B804012288F0EBF8EAF6A8F022EEF97C54
:10066F00007B00F5FFE7FCD129D1AFE5FFD129D100
:10067F00AFD185020672BC0006D12902062E22BC1C
:10068F000403040922BC240A09F5FFE7FCE5FF2C4B
:10069F000922BC740409E709227590FF0206AB22F8
:1006AF0075FE20758901758A00758C00D28C308D8E
:0906BF00FDC28DC28CD5FEEB22B8
:00000001FF
