:100CFF0000010203101311120405060714FFFFFF72
:100D0F0008090A0BC0C1C2C30C0D0E0FC4C5C6C75C
:0300000002066590
:10000300C2B1C2AFC2A891FFB148D16230C002D120
:100013009830C202D18A30C1030206A5D2AFD2A85A
:03002300D2B13225
:1004FF00B10CB119B13E75800075A0FF22E5A07C4B
:10050F000030E0050C1302051022B280E5A0B4FF05
:10051F00037D0022B280B281E5A0B4FF037D0122EA
:10052F00B281B282E5A0B4FF037D02227D0322EDEA
:10053F00C4034C900CFF93F922F5FFE954F0B4C0BB
:10054F0005E5FFD12E22E954F0C2D5B40002D2D571
:10055F00C2C0C2C2C2C1B91409D2C178007A007B2D
:10056F000022B8000BB91005780102061D02061B08
:10057F00B8010D30D5077802D12002061D02061BE7
:10058F00B8020D30D5077803D12002061D02061BD5
:10059F00B80317B913097804EBFED2C002061D3059
:1005AF00D505D12002061D02061BB8040D30D50754
:1005BF007805D12702061D02061BB8050D30D5F7A9
:1005CF007806D12702061D02061BB80615B91307B8
:1005DF007807D2C002061D30D505D12702061D02AD
:1005EF00061BB80729B9100778017A0002061DB952
:1005FF00110A78047A00EB04FB02061DB9120A787F
:10060F00047A00EB14FB02061D02061BD2C2D1585E
:10061F0022EBC454F049FB22EAC454F049FA22B940
:10062F00C00122B9C102E822B9C202EB22B9C3024A
:10063F00EA22B9C402EE22B9C503E5F022B9C60316
:10064F00E5CF22B9C700D15822E854FCB40002EB21
:10065F0022EA22F59022D16A02066775800075A002
:10066F00FF759000D288C2AA780079007A007B00CB
:10067F00C2D5C2C1C2C0D2AFD2A8228580F07488C1
:10068F00D162D1E0E580D16222B804012288F0EB7B
:10069F00F8EAF6A8F022EEF97C007B00F5FFE7FC04
:1006AF00E5FFD1B60206ABBC0006D1620206672297
:1006BF00BC0403040922BC240A09F5FFE7FCE5FF8B
:1006CF002C0922BC740409E709227590FF0206DC8D
:1006DF002275FE0A758901758A00758C00D28C30DF
:0A06EF008DFDC28DC28CD5FEEB22FA
:00000001FF
