:100CFF0000010203101311120405060714FFFFFF72
:100D0F0008090A0BC0C1C2C30C0D0E0FC4C5C6C75C
:0300000002061DD8
:10000300C2B1C2AFC2A891FFB14830C002D14330E0
:10001300C202D14230C102D1508A90D2AFD2A8D20B
:02002300B132F8
:1004FF00B10CB119B13E75800075A0FF22E5A07C4B
:10050F000030E0050C1302051022B280E5A0B4FF05
:10051F00037D0022B280B281E5A0B4FF037D0122EA
:10052F00B281B282E5A0B4FF037D02227D0322EDEA
:10053F00C4034C900CFF93F922E954F0C2D5B400D8
:10054F0002D2D5C2C0C2C2C2C1B91409D2C1780089
:10055F007A007B0022B8000BB91005780102060E55
:10056F0002060CB8010D30D5077802D10F02060E26
:10057F0002060CB8020D30D5077803D10F02060E14
:10058F0002060CB80315B913077804D2C002060E81
:10059F0030D505D10F02060E02060CB8040D30D56A
:1005AF00077805D11602060E02060CB8050D30D5D8
:1005BF00F77806D11602060E02060CB80615B91307
:1005CF00077807D2C002060E30D505D11602060EE7
:1005DF0002060CB80729B9100778017A0002060E37
:1005EF00B9110A78047A00EB04FB02060EB9120A5D
:1005FF0078047A00EB14FB02060E02060CD2C2221C
:10060F00EBC454F049FB22EAC454F049FA22D12238
:10061F0002061F75800075A0FF759000D288C2AAD0
:10062F00780079007A007B00C2D5C2C1C2C0D2AFB8
:10063F00D2A82222B804012288F0EBF8EAF6A8F03B
:02064F00222265
:00000001FF
